{
  "abi": [
    {
      "inputs": [
        {
          "internalType": "uint256",
          "name": "principal",
          "type": "uint256"
        },
        {
          "internalType": "uint256",
          "name": "interest",
          "type": "uint256"
        },
        {
          "internalType": "uint256",
          "name": "period",
          "type": "uint256"
        }
      ],
      "name": "calculateInterest",
      "outputs": [
        {
          "internalType": "uint256",
          "name": "",
          "type": "uint256"
        }
      ],
      "stateMutability": "pure",
      "type": "function"
    },
    {
      "inputs": [
        {
          "internalType": "uint256",
          "name": "x",
          "type": "uint256"
        },
        {
          "internalType": "uint256",
          "name": "y",
          "type": "uint256"
        },
        {
          "internalType": "uint256",
          "name": "z",
          "type": "uint256"
        }
      ],
      "name": "mulDiv",
      "outputs": [
        {
          "internalType": "uint256",
          "name": "",
          "type": "uint256"
        }
      ],
      "stateMutability": "pure",
      "type": "function"
    }
  ],
  "bytecode": {
    "object": "0x61016e61003a600b82828239805160001a60731461002d57634e487b7160e01b600052600060045260246000fd5b30600052607381538281f3fe73000000000000000000000000000000000000000030146080604052600436106100405760003560e01c806305e1bd8c14610045578063aa9a09121461006a575b600080fd5b6100586100533660046100bd565b61007d565b60405190815260200160405180910390f35b6100586100783660046100bd565b6100a6565b600061009e84610090858561016d6100a6565b670de0b6b3a76400006100a6565b949350505050565b6000816100b384866100e9565b61009e9190610116565b6000806000606084860312156100d257600080fd5b505081359360208301359350604090920135919050565b600081600019048311821515161561011157634e487b7160e01b600052601160045260246000fd5b500290565b60008261013357634e487b7160e01b600052601260045260246000fd5b50049056fea2646970667358221220b203284c0b2ff4a486fc5bc36fbaf09fd5b621337f56d3de754e009efeef572964736f6c634300080f0033",
    "linkReferences": {}
  },
  "methodIdentifiers": {
    "calculateInterest(uint256,uint256,uint256)": "05e1bd8c",
    "mulDiv(uint256,uint256,uint256)": "aa9a0912"
  },
  "id": 11
}