{
  "abi": [
    {
      "inputs": [
        {
          "internalType": "address",
          "name": "_tokenAddr",
          "type": "address"
        }
      ],
      "stateMutability": "nonpayable",
      "type": "constructor"
    },
    {
      "anonymous": false,
      "inputs": [
        {
          "indexed": true,
          "internalType": "address",
          "name": "poolProvider",
          "type": "address"
        },
        {
          "indexed": false,
          "internalType": "uint256",
          "name": "amount",
          "type": "uint256"
        },
        {
          "indexed": false,
          "internalType": "uint256",
          "name": "shares",
          "type": "uint256"
        }
      ],
      "name": "DepositMade",
      "type": "event"
    },
    {
      "anonymous": false,
      "inputs": [
        {
          "indexed": true,
          "internalType": "address",
          "name": "approver",
          "type": "address"
        },
        {
          "indexed": true,
          "internalType": "address",
          "name": "borrower",
          "type": "address"
        },
        {
          "indexed": false,
          "internalType": "uint256",
          "name": "loanId",
          "type": "uint256"
        },
        {
          "indexed": false,
          "internalType": "uint256",
          "name": "amount",
          "type": "uint256"
        }
      ],
      "name": "LoanApproved",
      "type": "event"
    },
    {
      "anonymous": false,
      "inputs": [
        {
          "indexed": true,
          "internalType": "address",
          "name": "borrower",
          "type": "address"
        },
        {
          "indexed": false,
          "internalType": "uint256",
          "name": "loanId",
          "type": "uint256"
        },
        {
          "indexed": false,
          "internalType": "uint256",
          "name": "amount",
          "type": "uint256"
        }
      ],
      "name": "NewLoanRequest",
      "type": "event"
    },
    {
      "anonymous": false,
      "inputs": [
        {
          "indexed": true,
          "internalType": "address",
          "name": "previousOwner",
          "type": "address"
        },
        {
          "indexed": true,
          "internalType": "address",
          "name": "newOwner",
          "type": "address"
        }
      ],
      "name": "OwnershipTransferred",
      "type": "event"
    },
    {
      "anonymous": false,
      "inputs": [
        {
          "indexed": true,
          "internalType": "address",
          "name": "poolProvider",
          "type": "address"
        },
        {
          "indexed": false,
          "internalType": "uint256",
          "name": "amount",
          "type": "uint256"
        },
        {
          "indexed": false,
          "internalType": "uint256",
          "name": "shares",
          "type": "uint256"
        }
      ],
      "name": "WithdrawalMade",
      "type": "event"
    },
    {
      "inputs": [
        {
          "internalType": "uint256",
          "name": "_loanId",
          "type": "uint256"
        }
      ],
      "name": "_slash",
      "outputs": [],
      "stateMutability": "nonpayable",
      "type": "function"
    },
    {
      "inputs": [
        {
          "internalType": "uint256",
          "name": "_loanId",
          "type": "uint256"
        }
      ],
      "name": "approve",
      "outputs": [],
      "stateMutability": "nonpayable",
      "type": "function"
    },
    {
      "inputs": [
        {
          "internalType": "address",
          "name": "",
          "type": "address"
        }
      ],
      "name": "approvers",
      "outputs": [
        {
          "internalType": "uint256",
          "name": "balance",
          "type": "uint256"
        },
        {
          "internalType": "uint256",
          "name": "reputation",
          "type": "uint256"
        },
        {
          "internalType": "uint256",
          "name": "approvalLimit",
          "type": "uint256"
        },
        {
          "internalType": "uint256",
          "name": "currentlyApproved",
          "type": "uint256"
        }
      ],
      "stateMutability": "view",
      "type": "function"
    },
    {
      "inputs": [
        {
          "internalType": "address",
          "name": "",
          "type": "address"
        }
      ],
      "name": "borrowers",
      "outputs": [
        {
          "internalType": "uint256",
          "name": "borrowLimit",
          "type": "uint256"
        },
        {
          "internalType": "uint256",
          "name": "currentlyBorrowed",
          "type": "uint256"
        },
        {
          "internalType": "uint256",
          "name": "reputation",
          "type": "uint256"
        }
      ],
      "stateMutability": "view",
      "type": "function"
    },
    {
      "inputs": [
        {
          "internalType": "uint256",
          "name": "_amt",
          "type": "uint256"
        }
      ],
      "name": "burnShares",
      "outputs": [],
      "stateMutability": "nonpayable",
      "type": "function"
    },
    {
      "inputs": [
        {
          "internalType": "uint256",
          "name": "_amt",
          "type": "uint256"
        },
        {
          "internalType": "uint256",
          "name": "_durationDays",
          "type": "uint256"
        }
      ],
      "name": "calcIntr",
      "outputs": [
        {
          "internalType": "uint256",
          "name": "",
          "type": "uint256"
        }
      ],
      "stateMutability": "view",
      "type": "function"
    },
    {
      "inputs": [
        {
          "internalType": "uint256",
          "name": "_loanId",
          "type": "uint256"
        }
      ],
      "name": "checkDefault",
      "outputs": [
        {
          "internalType": "bool",
          "name": "",
          "type": "bool"
        }
      ],
      "stateMutability": "nonpayable",
      "type": "function"
    },
    {
      "inputs": [
        {
          "internalType": "uint256",
          "name": "_amt",
          "type": "uint256"
        }
      ],
      "name": "deposit",
      "outputs": [],
      "stateMutability": "nonpayable",
      "type": "function"
    },
    {
      "inputs": [
        {
          "internalType": "uint256",
          "name": "_reputation",
          "type": "uint256"
        }
      ],
      "name": "getApprovalLimit",
      "outputs": [
        {
          "internalType": "uint256",
          "name": "",
          "type": "uint256"
        }
      ],
      "stateMutability": "nonpayable",
      "type": "function"
    },
    {
      "inputs": [
        {
          "internalType": "uint256",
          "name": "_reputation",
          "type": "uint256"
        }
      ],
      "name": "getBorrowLimit",
      "outputs": [
        {
          "internalType": "uint256",
          "name": "",
          "type": "uint256"
        }
      ],
      "stateMutability": "nonpayable",
      "type": "function"
    },
    {
      "inputs": [
        {
          "internalType": "address",
          "name": "_borrower",
          "type": "address"
        },
        {
          "internalType": "uint256",
          "name": "_index",
          "type": "uint256"
        }
      ],
      "name": "getBorrowerLoan",
      "outputs": [
        {
          "internalType": "uint256",
          "name": "",
          "type": "uint256"
        }
      ],
      "stateMutability": "view",
      "type": "function"
    },
    {
      "inputs": [],
      "name": "getInitialBorrowLimit",
      "outputs": [
        {
          "internalType": "uint256",
          "name": "",
          "type": "uint256"
        }
      ],
      "stateMutability": "view",
      "type": "function"
    },
    {
      "inputs": [],
      "name": "getLendingRate",
      "outputs": [
        {
          "internalType": "uint256",
          "name": "",
          "type": "uint256"
        }
      ],
      "stateMutability": "view",
      "type": "function"
    },
    {
      "inputs": [],
      "name": "getPoolReserves",
      "outputs": [
        {
          "internalType": "uint256",
          "name": "",
          "type": "uint256"
        }
      ],
      "stateMutability": "view",
      "type": "function"
    },
    {
      "inputs": [
        {
          "internalType": "uint256",
          "name": "_amt",
          "type": "uint256"
        }
      ],
      "name": "getPoolShare",
      "outputs": [
        {
          "internalType": "uint256",
          "name": "",
          "type": "uint256"
        }
      ],
      "stateMutability": "view",
      "type": "function"
    },
    {
      "inputs": [
        {
          "internalType": "address",
          "name": "_borrower",
          "type": "address"
        }
      ],
      "name": "getRepayAmount",
      "outputs": [
        {
          "internalType": "uint256",
          "name": "",
          "type": "uint256"
        }
      ],
      "stateMutability": "view",
      "type": "function"
    },
    {
      "inputs": [],
      "name": "getReputation",
      "outputs": [
        {
          "internalType": "uint256",
          "name": "",
          "type": "uint256"
        }
      ],
      "stateMutability": "nonpayable",
      "type": "function"
    },
    {
      "inputs": [],
      "name": "getTotalShares",
      "outputs": [
        {
          "internalType": "uint256",
          "name": "",
          "type": "uint256"
        }
      ],
      "stateMutability": "view",
      "type": "function"
    },
    {
      "inputs": [],
      "name": "initialize",
      "outputs": [],
      "stateMutability": "nonpayable",
      "type": "function"
    },
    {
      "inputs": [],
      "name": "lendingRateAPR",
      "outputs": [
        {
          "internalType": "uint256",
          "name": "",
          "type": "uint256"
        }
      ],
      "stateMutability": "view",
      "type": "function"
    },
    {
      "inputs": [
        {
          "internalType": "address",
          "name": "_bAddr",
          "type": "address"
        },
        {
          "internalType": "uint256",
          "name": "_loanId",
          "type": "uint256"
        }
      ],
      "name": "loanAlreadyExists",
      "outputs": [
        {
          "internalType": "bool",
          "name": "",
          "type": "bool"
        }
      ],
      "stateMutability": "view",
      "type": "function"
    },
    {
      "inputs": [
        {
          "internalType": "uint256",
          "name": "",
          "type": "uint256"
        }
      ],
      "name": "loans",
      "outputs": [
        {
          "internalType": "address",
          "name": "borrower",
          "type": "address"
        },
        {
          "internalType": "uint256",
          "name": "amount",
          "type": "uint256"
        },
        {
          "internalType": "address",
          "name": "approver",
          "type": "address"
        },
        {
          "internalType": "uint256",
          "name": "startTime",
          "type": "uint256"
        }
      ],
      "stateMutability": "view",
      "type": "function"
    },
    {
      "inputs": [],
      "name": "maxLoanAmount",
      "outputs": [
        {
          "internalType": "uint256",
          "name": "",
          "type": "uint256"
        }
      ],
      "stateMutability": "view",
      "type": "function"
    },
    {
      "inputs": [],
      "name": "maxTimePeriod",
      "outputs": [
        {
          "internalType": "uint256",
          "name": "",
          "type": "uint256"
        }
      ],
      "stateMutability": "view",
      "type": "function"
    },
    {
      "inputs": [],
      "name": "minPoolAllocation",
      "outputs": [
        {
          "internalType": "uint256",
          "name": "",
          "type": "uint256"
        }
      ],
      "stateMutability": "view",
      "type": "function"
    },
    {
      "inputs": [
        {
          "internalType": "uint256",
          "name": "_amt",
          "type": "uint256"
        }
      ],
      "name": "mintNewShares",
      "outputs": [],
      "stateMutability": "nonpayable",
      "type": "function"
    },
    {
      "inputs": [],
      "name": "owner",
      "outputs": [
        {
          "internalType": "address",
          "name": "",
          "type": "address"
        }
      ],
      "stateMutability": "view",
      "type": "function"
    },
    {
      "inputs": [],
      "name": "renounceOwnership",
      "outputs": [],
      "stateMutability": "nonpayable",
      "type": "function"
    },
    {
      "inputs": [
        {
          "internalType": "uint256",
          "name": "_loanId",
          "type": "uint256"
        },
        {
          "internalType": "uint256",
          "name": "_amt",
          "type": "uint256"
        }
      ],
      "name": "repay",
      "outputs": [],
      "stateMutability": "nonpayable",
      "type": "function"
    },
    {
      "inputs": [
        {
          "internalType": "uint256",
          "name": "_amt",
          "type": "uint256"
        }
      ],
      "name": "request",
      "outputs": [],
      "stateMutability": "nonpayable",
      "type": "function"
    },
    {
      "inputs": [
        {
          "internalType": "uint256",
          "name": "_lendingRateAPR",
          "type": "uint256"
        }
      ],
      "name": "setLendingRate",
      "outputs": [],
      "stateMutability": "nonpayable",
      "type": "function"
    },
    {
      "inputs": [
        {
          "internalType": "address",
          "name": "_addr",
          "type": "address"
        }
      ],
      "name": "setUSDCAddress",
      "outputs": [],
      "stateMutability": "nonpayable",
      "type": "function"
    },
    {
      "inputs": [],
      "name": "totalShares",
      "outputs": [
        {
          "internalType": "uint256",
          "name": "",
          "type": "uint256"
        }
      ],
      "stateMutability": "view",
      "type": "function"
    },
    {
      "inputs": [
        {
          "internalType": "address",
          "name": "newOwner",
          "type": "address"
        }
      ],
      "name": "transferOwnership",
      "outputs": [],
      "stateMutability": "nonpayable",
      "type": "function"
    },
    {
      "inputs": [
        {
          "internalType": "address",
          "name": "_aa",
          "type": "address"
        }
      ],
      "name": "updateApproverReputation",
      "outputs": [],
      "stateMutability": "nonpayable",
      "type": "function"
    },
    {
      "inputs": [
        {
          "internalType": "address",
          "name": "_ba",
          "type": "address"
        }
      ],
      "name": "updateBorrowerReputation",
      "outputs": [],
      "stateMutability": "nonpayable",
      "type": "function"
    },
    {
      "inputs": [
        {
          "internalType": "uint256",
          "name": "_amt",
          "type": "uint256"
        }
      ],
      "name": "withdraw",
      "outputs": [],
      "stateMutability": "nonpayable",
      "type": "function"
    }
  ],
  "bytecode": {
    "object": "0x6080604052600380546001600160a01b03191673e6b8a5cf854791412c1f6efc7caf629f5df1c7471790553480156200003757600080fd5b5060405162001dd038038062001dd08339810160408190526200005a9162000192565b620000653362000095565b60018055600280546001600160a01b0319166001600160a01b0383161790556200008e620000e5565b50620001c4565b600080546001600160a01b038381166001600160a01b0319831681178455604051919092169283917f8be0079c531659141344cd1fd0a4f28419497f9722a3daafe3b4186f6b6457e09190a35050565b620000ef6200012a565b6702c68af0bb140000600455601e600b55662386f26fc10000600c55600060095562000128600562000189602090811b620016b817901c565b565b6000546001600160a01b03163314620001285760405162461bcd60e51b815260206004820181905260248201527f4f776e61626c653a2063616c6c6572206973206e6f7420746865206f776e6572604482015260640160405180910390fd5b80546001019055565b600060208284031215620001a557600080fd5b81516001600160a01b0381168114620001bd57600080fd5b9392505050565b611bfc80620001d46000396000f3fe608060405234801561001057600080fd5b50600436106102275760003560e01c8063aaf5bfc311610130578063d5002f2e116100b8578063e28db5401161007c578063e28db54014610460578063eb02241414610551578063f2fde38b14610559578063fe9d087e1461056c578063ffe6a18e1461057f57600080fd5b8063d5002f2e14610498578063d845a4b3146104a0578063d8aed145146104b3578063dee5b5ef146104c6578063e1ec3c68146104d957600080fd5b8063bf5d50c4116100ff578063bf5d50c41461040e578063c0e70e7314610458578063c63c8b3614610460578063c713bf8c1461047c578063d1a87f641461048f57600080fd5b8063aaf5bfc3146103a5578063b6b55f25146103d5578063b759f954146103e8578063b9306dda146103fb57600080fd5b806372f94365116101b35780638da5cb5b116101825780638da5cb5b1461033d5780639342215314610358578063939c2a2b1461036b5780639574af481461037e5780639be5b2bd1461039157600080fd5b806372f94365146102f6578063759135a1146102ff5780638129fc1c14610322578063853c637d1461032a57600080fd5b80632e1a7d4d116101fa5780632e1a7d4d146102aa5780633a98ef39146102bf578063512b7258146102c85780635ddbb376146102db578063715018a6146102ee57600080fd5b80630a1443911461022c5780630be56d34146102865780631d9bc62e146102985780632241285d146102a1575b600080fd5b61026161023a366004611a13565b60066020526000908152604090208054600182015460028301546003909301549192909184565b6040805194855260208501939093529183015260608201526080015b60405180910390f35b6004545b60405190815260200161027d565b61028a600c5481565b61028a60045481565b6102bd6102b8366004611a2e565b610586565b005b61028a60095481565b61028a6102d6366004611a47565b6106cc565b6102bd6102e9366004611a2e565b610774565b6102bd610802565b61028a600a5481565b61031261030d366004611a2e565b610816565b604051901515815260200161027d565b6102bd610892565b6102bd610338366004611a2e565b6108c9565b6000546040516001600160a01b03909116815260200161027d565b6102bd610366366004611a2e565b610926565b6102bd610379366004611a2e565b610a51565b6102bd61038c366004611a13565b610a5e565b61028a61039f366004611a13565b50600090565b6102bd6103b3366004611a13565b600380546001600160a01b0319166001600160a01b0392909216919091179055565b6102bd6103e3366004611a2e565b610a8a565b6102bd6103f6366004611a2e565b610c4b565b610312610409366004611a69565b610f86565b61043d61041c366004611a13565b60076020526000908152604090208054600182015460029092015490919083565b6040805193845260208401929092529082015260600161027d565b61028a611077565b61028a61046e366004611a2e565b50683635c9adc5dea0000090565b61028a61048a366004611a69565b611116565b61028a600b5481565b61028a611180565b6102bd6104ae366004611a2e565b6111ca565b6102bd6104c1366004611a47565b61136e565b6102bd6104d4366004611a13565b611586565b61051c6104e7366004611a2e565b60086020526000908152604090208054600182015460028301546003909301546001600160a01b039283169391929091169084565b60405161027d94939291906001600160a01b039485168152602081019390935292166040820152606081019190915260800190565b61028a6115b6565b6102bd610567366004611a13565b61160b565b61028a61057a366004611a2e565b611684565b60c861028a565b600081116105db5760405162461bcd60e51b815260206004820152601c60248201527f4d757374207769746864726177206d6f7265207468616e207a65726f0000000060448201526064015b60405180910390fd5b336000908152600660205260408120600381015481549192916105fe9190611aa9565b9050828110156106455760405162461bcd60e51b81526020600482015260126024820152714e6f7420656e6f7567682062616c616e636560701b60448201526064016105d2565b600061065084611684565b905061065b816108c9565b8383600001600082825461066f9190611aa9565b9091555061067e905033611586565b6106893033866116c1565b50604080518581526020810183905233917f2d4d49c3e017b8235c908cbaa83a2431a08f3b950712696ece2088964fd399f091015b60405180910390a250505050565b600073__$8103477d69fb98e53a0fc5d631f2d772d4$__63aa9a091284846004546106f79190611ac0565b6040516001600160e01b031960e085901b168152600481019290925260248201526813c9647e25a99400006044820152606401602060405180830381865af4158015610747573d6000803e3d6000fd5b505050506040513d601f19601f8201168201806040525081019061076b9190611adf565b90505b92915050565b336000908152600660205260409020546107a05760405162461bcd60e51b81526004016105d290611af8565b60025460405163140e25ad60e31b8152600481018390526001600160a01b039091169063a0712d68906024015b600060405180830381600087803b1580156107e757600080fd5b505af11580156107fb573d6000803e3d6000fd5b5050505050565b61080a611830565b610814600061188a565b565b6000818152600860209081526040808320815160808101835281546001600160a01b0390811682526001830154948201949094526002820154909316918301919091526003015460608201524261086b6118da565b826060015161087a9190611b25565b10156108895750600192915050565b50600092915050565b61089a611830565b6702c68af0bb140000600455601e600b55662386f26fc10000600c556000600955610814600580546001019055565b336000908152600660205260409020546108f55760405162461bcd60e51b81526004016105d290611af8565b600254604051630852cd8d60e31b8152600481018390526001600160a01b03909116906342966c68906024016107cd565b600081815260086020908152604091829020825160808101845281546001600160a01b0390811682526001830154938201939093526002820154909216928201839052600301546060820152906109ae5760405162461bcd60e51b815260206004820152600c60248201526b24b73b30b634b2103637b0b760a11b60448201526064016105d2565b6040808201516001600160a01b031660009081526006602090815282822083516080810185528154815260018201548184015260028201549481019490945260030154606084019081529084018290528051610a0b908390611aa9565b905250602082015181518290610a22908390611aa9565b9052506020820151604082018051610a3b908390611aa9565b9052506040820151610a4c90611586565b505050565b610a59611830565b600455565b6001600160a01b0316600090815260076020526040902060c86002820155683635c9adc5dea000009055565b60008111610ada5760405162461bcd60e51b815260206004820152601b60248201527f4d757374206465706f736974206d6f7265207468616e207a65726f000000000060448201526064016105d2565b6000610ae582611684565b90506000610af43330856116c1565b905080610b435760405162461bcd60e51b815260206004820152601e60248201527f4661696c656420746f207472616e7366657220666f72206465706f736974000060448201526064016105d2565b3360009081526006602052604081205460c89103610ba95760408051608081018252858152602080820184815282840188815260006060850181815233825260069094529490942092518355516001830155915160028201559051600390910155610c0a565b3360009081526006602052604081208054869290610bc8908490611b25565b90915550503360009081526006602052604081206002018054869290610bef908490611b25565b90915550503360009081526006602052604090206001018190555b610c1383610774565b604080518581526020810185905233917f0b05f0d1cd0819f155b8a61f60baf7767c1ee49d04aeaab701df236140eb93f991016106be565b33600090815260066020526040902054610c775760405162461bcd60e51b81526004016105d290611af8565b60008181526008602052604090206001810154610cc55760405162461bcd60e51b815260206004820152600c60248201526b24b73b30b634b2103637b0b760a11b60448201526064016105d2565b60028101546001600160a01b031615610d185760405162461bcd60e51b8152602060048201526015602482015274131bd85b88185b1c9958591e48185c1c1c9bdd9959605a1b60448201526064016105d2565b336000908152600660205260409020600301546001820154610d3a9190611b25565b3360009081526006602052604090206002015411610d9a5760405162461bcd60e51b815260206004820152601e60248201527f476f696e67206f76657220796f757220617070726f76616c206c696d6974000060448201526064016105d2565b80546001600160a01b031660009081526007602052604090206002810154610dfd5760405162461bcd60e51b8152602060048201526016602482015275109bdc9c9bddd95c88191bd95cdb89dd08195e1a5cdd60521b60448201526064016105d2565b8154610e12906001600160a01b031684610f86565b15610e555760405162461bcd60e51b81526020600482015260136024820152724c6f616e20616c72656164792065786973747360681b60448201526064016105d2565b6003810180546001818101835560009283526020832090910185905583810154908301805491929091610e89908490611b25565b90915550506002820180546001600160a01b031916339081179091554260038085019190915560018401546000928352600660205260408320909101805491929091610ed6908490611b25565b925050819055506000610eee303385600101546116c1565b905080610f3d5760405162461bcd60e51b815260206004820152601d60248201527f4661696c656420746f207472616e7366657220666f7220626f72726f7700000060448201526064016105d2565b6001830154604080518681526020810192909252339182917f153dc5769b21c83a84e1d7b9c780392707982692fa5a6f78dbd841cdb7497edb910160405180910390a350505050565b6001600160a01b03821660009081526007602090815260408083208151608081018352815481526001820154818501526002820154818401526003820180548451818702810187019095528085528695929460608601939092919083018282801561101057602002820191906000526020600020905b815481526020019060010190808311610ffc575b505050505081525050905060005b81606001515181101561106c57838260600151828151811061104257611042611b3d565b60200260200101510361105a5760019250505061076e565b8061106481611b53565b91505061101e565b506000949350505050565b600073__$8103477d69fb98e53a0fc5d631f2d772d4$__63aa9a091261109b6115b6565b600c546040516001600160e01b031960e085901b16815260048101929092526024820152670de0b6b3a76400006044820152606401602060405180830381865af41580156110ed573d6000803e3d6000fd5b505050506040513d601f19601f820116820180604052508101906111119190611adf565b905090565b6001600160a01b03821660009081526007602052604081206003015482106111405750600061076e565b6001600160a01b038316600090815260076020526040902060030180548390811061116d5761116d611b3d565b9060005260206000200154905092915050565b600254604080516318160ddd60e01b815290516000926001600160a01b0316916318160ddd9160048083019260209291908290030181865afa1580156110ed573d6000803e3d6000fd5b6000811161121a5760405162461bcd60e51b815260206004820152601a60248201527f4d75737420626f72726f77206d6f7265207468616e207a65726f00000000000060448201526064016105d2565b336000908152600760205260408120600381015490910361123e5761123e33610a5e565b8054600182015461124f9084611b25565b1061129c5760405162461bcd60e51b815260206004820152601c60248201527f476f696e67206f76657220796f757220626f72726f77206c696d69740000000060448201526064016105d2565b60006112a760055490565b6040805160808101825233815260208082018781526000838501818152606085018281528783526008909452949020925183546001600160a01b039182166001600160a01b03199182161785559151600185015593516002840180549190951691161790925590516003909101559050611325600580546001019055565b61132e33610a5e565b604080518281526020810185905233917fc67abf520079310bcee1cfa50d430c50ae4a6ecba1849b43899611166b5e4c82910160405180910390a2505050565b600081116113be5760405162461bcd60e51b815260206004820152601a60248201527f4d75737420626f72726f77206d6f7265207468616e207a65726f00000000000060448201526064016105d2565b60008281526008602090815260408083203384526007835281842060028201546001600160a01b03168552600690935292206113f985610816565b1561143c5760405162461bcd60e51b81526020600482015260136024820152725061737365642074686520646561646c696e6560681b60448201526064016105d2565b81600101548411156114905760405162461bcd60e51b815260206004820152601d60248201527f43616e2774207265706179206d6f7265207468616e20796f75206f776500000060448201526064016105d2565b60006114a3856102d68660030154611901565b6114ad9086611b25565b905060006114bc3033886116c1565b90508061150b5760405162461bcd60e51b815260206004820152601c60248201527f4661696c656420746f207472616e7366657220666f722072657061790000000060448201526064016105d2565b6000600186015584546115289088906001600160a01b031661191b565b8584600101600082825461153c9190611aa9565b92505081905550858360030160008282546115579190611aa9565b90915550611566905033610a5e565b600285015461157d906001600160a01b0316611586565b50505050505050565b6001600160a01b0316600090815260066020526040902060c86001820155683635c9adc5dea00000600290910155565b6003546000906001600160a01b03166040516370a0823160e01b81523060048201526001600160a01b0391909116906370a0823190602401602060405180830381865afa1580156110ed573d6000803e3d6000fd5b611613611830565b6001600160a01b0381166116785760405162461bcd60e51b815260206004820152602660248201527f4f776e61626c653a206e6577206f776e657220697320746865207a65726f206160448201526564647265737360d01b60648201526084016105d2565b6116818161188a565b50565b600080600954836116959190611b25565b6116a784670de0b6b3a7640000611ac0565b6116b19190611b6c565b9392505050565b80546001019055565b60006001600160a01b0383166117195760405162461bcd60e51b815260206004820152601a60248201527f43616e27742073656e6420746f207a65726f206164647265737300000000000060448201526064016105d2565b6003546001600160a01b039081169030908616036117ac5760405163a9059cbb60e01b81526001600160a01b0385811660048301526024820185905282169063a9059cbb906044016020604051808303816000875af1158015611780573d6000803e3d6000fd5b505050506040513d601f19601f820116820180604052508101906117a49190611b8e565b9150506116b1565b6040516323b872dd60e01b81526001600160a01b0386811660048301528581166024830152604482018590528216906323b872dd906064016020604051808303816000875af1158015611803573d6000803e3d6000fd5b505050506040513d601f19601f820116820180604052508101906118279190611b8e565b95945050505050565b6000546001600160a01b031633146108145760405162461bcd60e51b815260206004820181905260248201527f4f776e61626c653a2063616c6c6572206973206e6f7420746865206f776e657260448201526064016105d2565b600080546001600160a01b038381166001600160a01b0319831681178455604051919092169283917f8be0079c531659141344cd1fd0a4f28419497f9722a3daafe3b4186f6b6457e09190a35050565b6000600b5460186118eb9190611ac0565b6118f690603c611ac0565b61111190603c611ac0565b6000620151806119118342611aa9565b61076e9190611b6c565b6001600160a01b038116600090815260076020526040812060030190805b825481101561197f578483828154811061195557611955611b3d565b90600052602060002001540361196d5780915061197f565b8061197781611b53565b915050611939565b508154829061199090600190611aa9565b815481106119a0576119a0611b3d565b90600052602060002001548282815481106119bd576119bd611b3d565b9060005260206000200181905550818054806119db576119db611bb0565b6001900381819060005260206000200160009055905550505050565b80356001600160a01b0381168114611a0e57600080fd5b919050565b600060208284031215611a2557600080fd5b61076b826119f7565b600060208284031215611a4057600080fd5b5035919050565b60008060408385031215611a5a57600080fd5b50508035926020909101359150565b60008060408385031215611a7c57600080fd5b611a85836119f7565b946020939093013593505050565b634e487b7160e01b600052601160045260246000fd5b600082821015611abb57611abb611a93565b500390565b6000816000190483118215151615611ada57611ada611a93565b500290565b600060208284031215611af157600080fd5b5051919050565b60208082526013908201527226bab9ba1031329030b71030b8383937bb32b960691b604082015260600190565b60008219821115611b3857611b38611a93565b500190565b634e487b7160e01b600052603260045260246000fd5b600060018201611b6557611b65611a93565b5060010190565b600082611b8957634e487b7160e01b600052601260045260246000fd5b500490565b600060208284031215611ba057600080fd5b815180151581146116b157600080fd5b634e487b7160e01b600052603160045260246000fdfea2646970667358221220de83440ce9388dfb9698cb6573a7c3ce2572aae86fb229994da8cddc17dc5daa64736f6c634300080f0033",
    "linkReferences": {
      "src/helpers/Math.sol": {
        "Math": [
          {
            "start": 2212,
            "length": 20
          },
          {
            "start": 4687,
            "length": 20
          }
        ]
      }
    }
  },
  "methodIdentifiers": {
    "_slash(uint256)": "93422153",
    "approve(uint256)": "b759f954",
    "approvers(address)": "0a144391",
    "borrowers(address)": "bf5d50c4",
    "burnShares(uint256)": "853c637d",
    "calcIntr(uint256,uint256)": "512b7258",
    "checkDefault(uint256)": "759135a1",
    "deposit(uint256)": "b6b55f25",
    "getApprovalLimit(uint256)": "c63c8b36",
    "getBorrowLimit(uint256)": "e28db540",
    "getBorrowerLoan(address,uint256)": "c713bf8c",
    "getInitialBorrowLimit()": "c0e70e73",
    "getLendingRate()": "0be56d34",
    "getPoolReserves()": "eb022414",
    "getPoolShare(uint256)": "fe9d087e",
    "getRepayAmount(address)": "9be5b2bd",
    "getReputation()": "ffe6a18e",
    "getTotalShares()": "d5002f2e",
    "initialize()": "8129fc1c",
    "lendingRateAPR()": "2241285d",
    "loanAlreadyExists(address,uint256)": "b9306dda",
    "loans(uint256)": "e1ec3c68",
    "maxLoanAmount()": "72f94365",
    "maxTimePeriod()": "d1a87f64",
    "minPoolAllocation()": "1d9bc62e",
    "mintNewShares(uint256)": "5ddbb376",
    "owner()": "8da5cb5b",
    "renounceOwnership()": "715018a6",
    "repay(uint256,uint256)": "d8aed145",
    "request(uint256)": "d845a4b3",
    "setLendingRate(uint256)": "939c2a2b",
    "setUSDCAddress(address)": "aaf5bfc3",
    "totalShares()": "3a98ef39",
    "transferOwnership(address)": "f2fde38b",
    "updateApproverReputation(address)": "dee5b5ef",
    "updateBorrowerReputation(address)": "9574af48",
    "withdraw(uint256)": "2e1a7d4d"
  },
  "id": 14
}